{
  "_format": "hh-sol-artifact-1",
  "contractName": "ReputationSystem",
  "sourceName": "contracts/ReputationSystem.sol",
  "abi": [
    {
      "inputs": [],
      "stateMutability": "nonpayable",
      "type": "constructor"
    },
    {
      "anonymous": false,
      "inputs": [
        {
          "indexed": true,
          "internalType": "address",
          "name": "user",
          "type": "address"
        },
        {
          "indexed": false,
          "internalType": "string",
          "name": "actionType",
          "type": "string"
        }
      ],
      "name": "ActionCompleted",
      "type": "event"
    },
    {
      "anonymous": false,
      "inputs": [
        {
          "indexed": true,
          "internalType": "address",
          "name": "owner",
          "type": "address"
        },
        {
          "indexed": true,
          "internalType": "address",
          "name": "approved",
          "type": "address"
        },
        {
          "indexed": true,
          "internalType": "uint256",
          "name": "tokenId",
          "type": "uint256"
        }
      ],
      "name": "Approval",
      "type": "event"
    },
    {
      "anonymous": false,
      "inputs": [
        {
          "indexed": true,
          "internalType": "address",
          "name": "owner",
          "type": "address"
        },
        {
          "indexed": true,
          "internalType": "address",
          "name": "operator",
          "type": "address"
        },
        {
          "indexed": false,
          "internalType": "bool",
          "name": "approved",
          "type": "bool"
        }
      ],
      "name": "ApprovalForAll",
      "type": "event"
    },
    {
      "anonymous": false,
      "inputs": [
        {
          "indexed": true,
          "internalType": "address",
          "name": "previousOwner",
          "type": "address"
        },
        {
          "indexed": true,
          "internalType": "address",
          "name": "newOwner",
          "type": "address"
        }
      ],
      "name": "OwnershipTransferred",
      "type": "event"
    },
    {
      "anonymous": false,
      "inputs": [
        {
          "indexed": true,
          "internalType": "address",
          "name": "user",
          "type": "address"
        },
        {
          "indexed": false,
          "internalType": "uint256",
          "name": "amount",
          "type": "uint256"
        },
        {
          "indexed": false,
          "internalType": "uint256",
          "name": "newScore",
          "type": "uint256"
        }
      ],
      "name": "ReputationDecreased",
      "type": "event"
    },
    {
      "anonymous": false,
      "inputs": [
        {
          "indexed": true,
          "internalType": "address",
          "name": "user",
          "type": "address"
        },
        {
          "indexed": false,
          "internalType": "uint256",
          "name": "amount",
          "type": "uint256"
        },
        {
          "indexed": false,
          "internalType": "uint256",
          "name": "newScore",
          "type": "uint256"
        }
      ],
      "name": "ReputationIncreased",
      "type": "event"
    },
    {
      "anonymous": false,
      "inputs": [
        {
          "indexed": true,
          "internalType": "address",
          "name": "to",
          "type": "address"
        },
        {
          "indexed": false,
          "internalType": "uint256",
          "name": "tokenId",
          "type": "uint256"
        },
        {
          "indexed": false,
          "internalType": "uint256",
          "name": "reputationLevel",
          "type": "uint256"
        }
      ],
      "name": "SoulboundTokenMinted",
      "type": "event"
    },
    {
      "anonymous": false,
      "inputs": [
        {
          "indexed": true,
          "internalType": "address",
          "name": "from",
          "type": "address"
        },
        {
          "indexed": true,
          "internalType": "address",
          "name": "to",
          "type": "address"
        },
        {
          "indexed": true,
          "internalType": "uint256",
          "name": "tokenId",
          "type": "uint256"
        }
      ],
      "name": "Transfer",
      "type": "event"
    },
    {
      "inputs": [
        {
          "internalType": "string",
          "name": "",
          "type": "string"
        }
      ],
      "name": "actionPoints",
      "outputs": [
        {
          "internalType": "uint256",
          "name": "",
          "type": "uint256"
        }
      ],
      "stateMutability": "view",
      "type": "function"
    },
    {
      "inputs": [
        {
          "internalType": "string",
          "name": "actionType",
          "type": "string"
        },
        {
          "internalType": "uint256",
          "name": "points",
          "type": "uint256"
        }
      ],
      "name": "addActionType",
      "outputs": [],
      "stateMutability": "nonpayable",
      "type": "function"
    },
    {
      "inputs": [
        {
          "internalType": "string",
          "name": "name",
          "type": "string"
        },
        {
          "internalType": "uint256",
          "name": "threshold",
          "type": "uint256"
        },
        {
          "internalType": "string",
          "name": "levelTokenURI",
          "type": "string"
        }
      ],
      "name": "addReputationLevel",
      "outputs": [],
      "stateMutability": "nonpayable",
      "type": "function"
    },
    {
      "inputs": [
        {
          "internalType": "address",
          "name": "",
          "type": "address"
        }
      ],
      "name": "addressToTokenId",
      "outputs": [
        {
          "internalType": "uint256",
          "name": "",
          "type": "uint256"
        }
      ],
      "stateMutability": "view",
      "type": "function"
    },
    {
      "inputs": [
        {
          "internalType": "address",
          "name": "to",
          "type": "address"
        },
        {
          "internalType": "uint256",
          "name": "tokenId",
          "type": "uint256"
        }
      ],
      "name": "approve",
      "outputs": [],
      "stateMutability": "nonpayable",
      "type": "function"
    },
    {
      "inputs": [
        {
          "internalType": "address",
          "name": "owner",
          "type": "address"
        }
      ],
      "name": "balanceOf",
      "outputs": [
        {
          "internalType": "uint256",
          "name": "",
          "type": "uint256"
        }
      ],
      "stateMutability": "view",
      "type": "function"
    },
    {
      "inputs": [
        {
          "internalType": "address",
          "name": "user",
          "type": "address"
        },
        {
          "internalType": "string",
          "name": "actionType",
          "type": "string"
        }
      ],
      "name": "completeAction",
      "outputs": [],
      "stateMutability": "nonpayable",
      "type": "function"
    },
    {
      "inputs": [
        {
          "internalType": "address",
          "name": "user",
          "type": "address"
        },
        {
          "internalType": "uint256",
          "name": "amount",
          "type": "uint256"
        }
      ],
      "name": "decreaseReputation",
      "outputs": [],
      "stateMutability": "nonpayable",
      "type": "function"
    },
    {
      "inputs": [
        {
          "internalType": "uint256",
          "name": "tokenId",
          "type": "uint256"
        }
      ],
      "name": "getApproved",
      "outputs": [
        {
          "internalType": "address",
          "name": "",
          "type": "address"
        }
      ],
      "stateMutability": "view",
      "type": "function"
    },
    {
      "inputs": [
        {
          "internalType": "address",
          "name": "user",
          "type": "address"
        }
      ],
      "name": "getReputationLevel",
      "outputs": [
        {
          "internalType": "uint256",
          "name": "levelId",
          "type": "uint256"
        },
        {
          "internalType": "string",
          "name": "levelName",
          "type": "string"
        }
      ],
      "stateMutability": "view",
      "type": "function"
    },
    {
      "inputs": [
        {
          "internalType": "address",
          "name": "user",
          "type": "address"
        },
        {
          "internalType": "uint256",
          "name": "amount",
          "type": "uint256"
        }
      ],
      "name": "increaseReputation",
      "outputs": [],
      "stateMutability": "nonpayable",
      "type": "function"
    },
    {
      "inputs": [
        {
          "internalType": "address",
          "name": "owner",
          "type": "address"
        },
        {
          "internalType": "address",
          "name": "operator",
          "type": "address"
        }
      ],
      "name": "isApprovedForAll",
      "outputs": [
        {
          "internalType": "bool",
          "name": "",
          "type": "bool"
        }
      ],
      "stateMutability": "view",
      "type": "function"
    },
    {
      "inputs": [],
      "name": "name",
      "outputs": [
        {
          "internalType": "string",
          "name": "",
          "type": "string"
        }
      ],
      "stateMutability": "view",
      "type": "function"
    },
    {
      "inputs": [],
      "name": "owner",
      "outputs": [
        {
          "internalType": "address",
          "name": "",
          "type": "address"
        }
      ],
      "stateMutability": "view",
      "type": "function"
    },
    {
      "inputs": [
        {
          "internalType": "uint256",
          "name": "tokenId",
          "type": "uint256"
        }
      ],
      "name": "ownerOf",
      "outputs": [
        {
          "internalType": "address",
          "name": "",
          "type": "address"
        }
      ],
      "stateMutability": "view",
      "type": "function"
    },
    {
      "inputs": [],
      "name": "renounceOwnership",
      "outputs": [],
      "stateMutability": "nonpayable",
      "type": "function"
    },
    {
      "inputs": [
        {
          "internalType": "uint256",
          "name": "",
          "type": "uint256"
        }
      ],
      "name": "reputationLevels",
      "outputs": [
        {
          "internalType": "string",
          "name": "name",
          "type": "string"
        },
        {
          "internalType": "uint256",
          "name": "threshold",
          "type": "uint256"
        },
        {
          "internalType": "string",
          "name": "tokenURI",
          "type": "string"
        }
      ],
      "stateMutability": "view",
      "type": "function"
    },
    {
      "inputs": [
        {
          "internalType": "address",
          "name": "",
          "type": "address"
        }
      ],
      "name": "reputationScores",
      "outputs": [
        {
          "internalType": "uint256",
          "name": "",
          "type": "uint256"
        }
      ],
      "stateMutability": "view",
      "type": "function"
    },
    {
      "inputs": [
        {
          "internalType": "address",
          "name": "from",
          "type": "address"
        },
        {
          "internalType": "address",
          "name": "to",
          "type": "address"
        },
        {
          "internalType": "uint256",
          "name": "tokenId",
          "type": "uint256"
        }
      ],
      "name": "safeTransferFrom",
      "outputs": [],
      "stateMutability": "nonpayable",
      "type": "function"
    },
    {
      "inputs": [
        {
          "internalType": "address",
          "name": "from",
          "type": "address"
        },
        {
          "internalType": "address",
          "name": "to",
          "type": "address"
        },
        {
          "internalType": "uint256",
          "name": "tokenId",
          "type": "uint256"
        },
        {
          "internalType": "bytes",
          "name": "data",
          "type": "bytes"
        }
      ],
      "name": "safeTransferFrom",
      "outputs": [],
      "stateMutability": "nonpayable",
      "type": "function"
    },
    {
      "inputs": [
        {
          "internalType": "address",
          "name": "operator",
          "type": "address"
        },
        {
          "internalType": "bool",
          "name": "approved",
          "type": "bool"
        }
      ],
      "name": "setApprovalForAll",
      "outputs": [],
      "stateMutability": "nonpayable",
      "type": "function"
    },
    {
      "inputs": [
        {
          "internalType": "bytes4",
          "name": "interfaceId",
          "type": "bytes4"
        }
      ],
      "name": "supportsInterface",
      "outputs": [
        {
          "internalType": "bool",
          "name": "",
          "type": "bool"
        }
      ],
      "stateMutability": "view",
      "type": "function"
    },
    {
      "inputs": [],
      "name": "symbol",
      "outputs": [
        {
          "internalType": "string",
          "name": "",
          "type": "string"
        }
      ],
      "stateMutability": "view",
      "type": "function"
    },
    {
      "inputs": [
        {
          "internalType": "uint256",
          "name": "tokenId",
          "type": "uint256"
        }
      ],
      "name": "tokenURI",
      "outputs": [
        {
          "internalType": "string",
          "name": "",
          "type": "string"
        }
      ],
      "stateMutability": "view",
      "type": "function"
    },
    {
      "inputs": [
        {
          "internalType": "address",
          "name": "from",
          "type": "address"
        },
        {
          "internalType": "address",
          "name": "to",
          "type": "address"
        },
        {
          "internalType": "uint256",
          "name": "tokenId",
          "type": "uint256"
        }
      ],
      "name": "transferFrom",
      "outputs": [],
      "stateMutability": "nonpayable",
      "type": "function"
    },
    {
      "inputs": [
        {
          "internalType": "address",
          "name": "newOwner",
          "type": "address"
        }
      ],
      "name": "transferOwnership",
      "outputs": [],
      "stateMutability": "nonpayable",
      "type": "function"
    }
  ],
  "bytecode": "0x60806040523480156200001157600080fd5b506040518060400160405280601a81526020017f52657075746174696f6e20536f756c626f756e6420546f6b656e0000000000008152506040518060400160405280600381526020017f525354000000000000000000000000000000000000000000000000000000000081525081600090816200008f919062000921565b508060019081620000a1919062000921565b505050620000c4620000b8620005d960201b60201c565b620005e160201b60201c565b600a80604051620000d59062000a63565b9081526020016040518091039020819055506014600a604051620000f99062000aca565b9081526020016040518091039020819055506032600a6040516200011d9062000b31565b908152602001604051809103902081905550600b60405180606001604052806040518060400160405280600681526020017f4e6f7669636500000000000000000000000000000000000000000000000000008152508152602001600081526020016040518060400160405280600e81526020017f697066733a2f2f516d486173683100000000000000000000000000000000000081525081525090806001815401808255809150506001900390600052602060002090600302016000909190919091506000820151816000019081620001f7919062000921565b5060208201518160010155604082015181600201908162000219919062000921565b505050600b60405180606001604052806040518060400160405280600b81526020017f436f6e7472696275746f720000000000000000000000000000000000000000008152508152602001606481526020016040518060400160405280600e81526020017f697066733a2f2f516d486173683200000000000000000000000000000000000081525081525090806001815401808255809150506001900390600052602060002090600302016000909190919091506000820151816000019081620002e4919062000921565b5060208201518160010155604082015181600201908162000306919062000921565b505050600b60405180606001604052806040518060400160405280600781526020017f5472757374656400000000000000000000000000000000000000000000000000815250815260200161012c81526020016040518060400160405280600e81526020017f697066733a2f2f516d486173683300000000000000000000000000000000000081525081525090806001815401808255809150506001900390600052602060002090600302016000909190919091506000820151816000019081620003d2919062000921565b50602082015181600101556040820151816002019081620003f4919062000921565b505050600b60405180606001604052806040518060400160405280600681526020017f457870657274000000000000000000000000000000000000000000000000000081525081526020016102bc81526020016040518060400160405280600e81526020017f697066733a2f2f516d486173683400000000000000000000000000000000000081525081525090806001815401808255809150506001900390600052602060002090600302016000909190919091506000820151816000019081620004c0919062000921565b50602082015181600101556040820151816002019081620004e2919062000921565b505050600b60405180606001604052806040518060400160405280600681526020017f4d6173746572000000000000000000000000000000000000000000000000000081525081526020016105dc81526020016040518060400160405280600e81526020017f697066733a2f2f516d486173683500000000000000000000000000000000000081525081525090806001815401808255809150506001900390600052602060002090600302016000909190919091506000820151816000019081620005ae919062000921565b50602082015181600101556040820151816002019081620005d0919062000921565b50505062000b48565b600033905090565b6000600660009054906101000a900473ffffffffffffffffffffffffffffffffffffffff16905081600660006101000a81548173ffffffffffffffffffffffffffffffffffffffff021916908373ffffffffffffffffffffffffffffffffffffffff1602179055508173ffffffffffffffffffffffffffffffffffffffff168173ffffffffffffffffffffffffffffffffffffffff167f8be0079c531659141344cd1fd0a4f28419497f9722a3daafe3b4186f6b6457e060405160405180910390a35050565b600081519050919050565b7f4e487b7100000000000000000000000000000000000000000000000000000000600052604160045260246000fd5b7f4e487b7100000000000000000000000000000000000000000000000000000000600052602260045260246000fd5b600060028204905060018216806200072957607f821691505b6020821081036200073f576200073e620006e1565b5b50919050565b60008190508160005260206000209050919050565b60006020601f8301049050919050565b600082821b905092915050565b600060088302620007a97fffffffffffffffffffffffffffffffffffffffffffffffffffffffffffffffff826200076a565b620007b586836200076a565b95508019841693508086168417925050509392505050565b6000819050919050565b6000819050919050565b600062000802620007fc620007f684620007cd565b620007d7565b620007cd565b9050919050565b6000819050919050565b6200081e83620007e1565b620008366200082d8262000809565b84845462000777565b825550505050565b600090565b6200084d6200083e565b6200085a81848462000813565b505050565b5b8181101562000882576200087660008262000843565b60018101905062000860565b5050565b601f821115620008d1576200089b8162000745565b620008a6846200075a565b81016020851015620008b6578190505b620008ce620008c5856200075a565b8301826200085f565b50505b505050565b600082821c905092915050565b6000620008f660001984600802620008d6565b1980831691505092915050565b6000620009118383620008e3565b9150826002028217905092915050565b6200092c82620006a7565b67ffffffffffffffff811115620009485762000947620006b2565b5b62000954825462000710565b6200096182828562000886565b600060209050601f83116001811462000999576000841562000984578287015190505b62000990858262000903565b86555062000a00565b601f198416620009a98662000745565b60005b82811015620009d357848901518255600182019150602085019450602081019050620009ac565b86831015620009f35784890151620009ef601f891682620008e3565b8355505b6001600288020188555050505b505050505050565b600081905092915050565b7f564f54455f494e5f44414f000000000000000000000000000000000000000000600082015250565b600062000a4b600b8362000a08565b915062000a588262000a13565b600b82019050919050565b600062000a708262000a3c565b9150819050919050565b7f434f4d504c4554455f5441534b00000000000000000000000000000000000000600082015250565b600062000ab2600d8362000a08565b915062000abf8262000a7a565b600d82019050919050565b600062000ad78262000aa3565b9150819050919050565b7f5645524946595f4143434f554e54000000000000000000000000000000000000600082015250565b600062000b19600e8362000a08565b915062000b268262000ae1565b600e82019050919050565b600062000b3e8262000b0a565b9150819050919050565b6135038062000b586000396000f3fe608060405234801561001057600080fd5b506004361061018e5760003560e01c806391e2d425116100de578063ca2be1ad11610097578063e985e9c511610071578063e985e9c5146104a6578063ed9fa61b146104d6578063f2fde38b146104f2578063fe0438b21461050e5761018e565b8063ca2be1ad1461043e578063dbc029b61461045a578063ded86d681461048a5761018e565b806391e2d42514610355578063942b23da1461038657806395d89b41146103b8578063a22cb465146103d6578063b88d4fde146103f2578063c87b56dd1461040e5761018e565b806342842e0e1161014b57806370a082311161012557806370a08231146102e1578063715018a61461031157806389e9614c1461031b5780638da5cb5b146103375761018e565b806342842e0e146102655780636352211e146102815780636511bf2e146102b15761018e565b806301ffc9a71461019357806306fdde03146101c3578063081812fc146101e1578063095ea7b31461021157806323b872dd1461022d5780633a50532914610249575b600080fd5b6101ad60048036038101906101a89190612077565b61053e565b6040516101ba91906120bf565b60405180910390f35b6101cb610620565b6040516101d8919061216a565b60405180910390f35b6101fb60048036038101906101f691906121c2565b6106b2565b6040516102089190612230565b60405180910390f35b61022b60048036038101906102269190612277565b6106f8565b005b610247600480360381019061024291906122b7565b61080f565b005b610263600480360381019061025e919061243f565b61086f565b005b61027f600480360381019061027a91906122b7565b6108fa565b005b61029b600480360381019061029691906121c2565b61091a565b6040516102a89190612230565b60405180910390f35b6102cb60048036038101906102c691906124ca565b6109a0565b6040516102d89190612506565b60405180910390f35b6102fb60048036038101906102f691906124ca565b6109b8565b6040516103089190612506565b60405180910390f35b610319610a6f565b005b61033560048036038101906103309190612521565b610a83565b005b61033f610b75565b60405161034c9190612230565b60405180910390f35b61036f600480360381019061036a91906124ca565b610b9f565b60405161037d92919061257d565b60405180910390f35b6103a0600480360381019061039b91906121c2565b610dcb565b6040516103af939291906125ad565b60405180910390f35b6103c0610f15565b6040516103cd919061216a565b60405180910390f35b6103f060048036038101906103eb919061261e565b610fa7565b005b61040c600480360381019061040791906126ff565b610fbd565b005b610428600480360381019061042391906121c2565b61101f565b604051610435919061216a565b60405180910390f35b61045860048036038101906104539190612782565b61113b565b005b610474600480360381019061046f91906127de565b61116a565b6040516104819190612506565b60405180910390f35b6104a4600480360381019061049f9190612277565b611198565b005b6104c060048036038101906104bb9190612827565b6111b7565b6040516104cd91906120bf565b60405180910390f35b6104f060048036038101906104eb9190612277565b61124b565b005b61050c600480360381019061050791906124ca565b6113be565b005b610528600480360381019061052391906124ca565b611441565b6040516105359190612506565b60405180910390f35b60007f80ac58cd000000000000000000000000000000000000000000000000000000007bffffffffffffffffffffffffffffffffffffffffffffffffffffffff1916827bffffffffffffffffffffffffffffffffffffffffffffffffffffffff1916148061060957507f5b5e139f000000000000000000000000000000000000000000000000000000007bffffffffffffffffffffffffffffffffffffffffffffffffffffffff1916827bffffffffffffffffffffffffffffffffffffffffffffffffffffffff1916145b80610619575061061882611459565b5b9050919050565b60606000805461062f90612896565b80601f016020809104026020016040519081016040528092919081815260200182805461065b90612896565b80156106a85780601f1061067d576101008083540402835291602001916106a8565b820191906000526020600020905b81548152906001019060200180831161068b57829003601f168201915b5050505050905090565b60006106bd826114c3565b6004600083815260200190815260200160002060009054906101000a900473ffffffffffffffffffffffffffffffffffffffff169050919050565b60006107038261091a565b90508073ffffffffffffffffffffffffffffffffffffffff168373ffffffffffffffffffffffffffffffffffffffff1603610773576040517f08c379a000000000000000000000000000000000000000000000000000000000815260040161076a90612939565b60405180910390fd5b8073ffffffffffffffffffffffffffffffffffffffff1661079261150e565b73ffffffffffffffffffffffffffffffffffffffff1614806107c157506107c0816107bb61150e565b6111b7565b5b610800576040517f08c379a00000000000000000000000000000000000000000000000000000000081526004016107f7906129cb565b60405180910390fd5b61080a8383611516565b505050565b61082061081a61150e565b826115cf565b61085f576040517f08c379a000000000000000000000000000000000000000000000000000000000815260040161085690612a5d565b60405180910390fd5b61086a838383611664565b505050565b61087761169f565b600b604051806060016040528085815260200184815260200183815250908060018154018082558091505060019003906000526020600020906003020160009091909190915060008201518160000190816108d29190612c29565b506020820151816001015560408201518160020190816108f29190612c29565b505050505050565b61091583838360405180602001604052806000815250610fbd565b505050565b6000806109268361171d565b9050600073ffffffffffffffffffffffffffffffffffffffff168173ffffffffffffffffffffffffffffffffffffffff1603610997576040517f08c379a000000000000000000000000000000000000000000000000000000000815260040161098e90612d47565b60405180910390fd5b80915050919050565b60096020528060005260406000206000915090505481565b60008073ffffffffffffffffffffffffffffffffffffffff168273ffffffffffffffffffffffffffffffffffffffff1603610a28576040517f08c379a0000000000000000000000000000000000000000000000000000000008152600401610a1f90612dd9565b60405180910390fd5b600360008373ffffffffffffffffffffffffffffffffffffffff1673ffffffffffffffffffffffffffffffffffffffff168152602001908152602001600020549050919050565b610a7761169f565b610a81600061175a565b565b610a8b61169f565b6000600a82604051610a9d9190612e35565b90815260200160405180910390205411610aec576040517f08c379a0000000000000000000000000000000000000000000000000000000008152600401610ae390612e98565b60405180910390fd5b6000600a82604051610afe9190612e35565b9081526020016040518091039020549050610b198382611820565b8273ffffffffffffffffffffffffffffffffffffffff167fd469ddfa1c4a0480af4ce6a16e3352d90f9b398a8315b896900d0e6226f6990e83604051610b5f919061216a565b60405180910390a2610b7083611909565b505050565b6000600660009054906101000a900473ffffffffffffffffffffffffffffffffffffffff16905090565b600060606000600860008573ffffffffffffffffffffffffffffffffffffffff1673ffffffffffffffffffffffffffffffffffffffff16815260200190815260200160002054905060006001600b80549050610bfb9190612ee7565b90505b60008110610d0b57600b8181548110610c1a57610c19612f1b565b5b9060005260206000209060030201600101548210610cef5780600b8281548110610c4757610c46612f1b565b5b9060005260206000209060030201600001808054610c6490612896565b80601f0160208091040260200160405190810160405280929190818152602001828054610c9090612896565b8015610cdd5780601f10610cb257610100808354040283529160200191610cdd565b820191906000526020600020905b815481529060010190602001808311610cc057829003601f168201915b50505050509050935093505050610dc6565b6000810315610d0b578080610d0390612f4a565b915050610bfe565b506000600b600081548110610d2357610d22612f1b565b5b9060005260206000209060030201600001808054610d4090612896565b80601f0160208091040260200160405190810160405280929190818152602001828054610d6c90612896565b8015610db95780601f10610d8e57610100808354040283529160200191610db9565b820191906000526020600020905b815481529060010190602001808311610d9c57829003601f168201915b5050505050905092509250505b915091565b600b8181548110610ddb57600080fd5b9060005260206000209060030201600091509050806000018054610dfe90612896565b80601f0160208091040260200160405190810160405280929190818152602001828054610e2a90612896565b8015610e775780601f10610e4c57610100808354040283529160200191610e77565b820191906000526020600020905b815481529060010190602001808311610e5a57829003601f168201915b505050505090806001015490806002018054610e9290612896565b80601f0160208091040260200160405190810160405280929190818152602001828054610ebe90612896565b8015610f0b5780601f10610ee057610100808354040283529160200191610f0b565b820191906000526020600020905b815481529060010190602001808311610eee57829003601f168201915b5050505050905083565b606060018054610f2490612896565b80601f0160208091040260200160405190810160405280929190818152602001828054610f5090612896565b8015610f9d5780601f10610f7257610100808354040283529160200191610f9d565b820191906000526020600020905b815481529060010190602001808311610f8057829003601f168201915b5050505050905090565b610fb9610fb261150e565b838361196d565b5050565b610fce610fc861150e565b836115cf565b61100d576040517f08c379a000000000000000000000000000000000000000000000000000000000815260040161100490612a5d565b60405180910390fd5b61101984848484611ad9565b50505050565b606061102a82611b35565b611069576040517f08c379a000000000000000000000000000000000000000000000000000000000815260040161106090612d47565b60405180910390fd5b60006110748361091a565b9050600061108182610b9f565b509050600b818154811061109857611097612f1b565b5b906000526020600020906003020160020180546110b490612896565b80601f01602080910402602001604051908101604052809291908181526020018280546110e090612896565b801561112d5780601f106111025761010080835404028352916020019161112d565b820191906000526020600020905b81548152906001019060200180831161111057829003601f168201915b505050505092505050919050565b61114361169f565b80600a836040516111549190612e35565b9081526020016040518091039020819055505050565b600a818051602081018201805184825260208301602085012081835280955050505050506000915090505481565b6111a061169f565b6111aa8282611820565b6111b382611909565b5050565b6000600560008473ffffffffffffffffffffffffffffffffffffffff1673ffffffffffffffffffffffffffffffffffffffff16815260200190815260200160002060008373ffffffffffffffffffffffffffffffffffffffff1673ffffffffffffffffffffffffffffffffffffffff16815260200190815260200160002060009054906101000a900460ff16905092915050565b61125361169f565b80600860008473ffffffffffffffffffffffffffffffffffffffff1673ffffffffffffffffffffffffffffffffffffffff1681526020019081526020016000205410156112d5576040517f08c379a00000000000000000000000000000000000000000000000000000000081526004016112cc90612fbf565b60405180910390fd5b80600860008473ffffffffffffffffffffffffffffffffffffffff1673ffffffffffffffffffffffffffffffffffffffff16815260200190815260200160002060008282546113249190612ee7565b925050819055508173ffffffffffffffffffffffffffffffffffffffff167f8c906f659d5537f9e617a171b7fdd59760a014eeb4811da5c5fccf62a413983482600860008673ffffffffffffffffffffffffffffffffffffffff1673ffffffffffffffffffffffffffffffffffffffff168152602001908152602001600020546040516113b2929190612fdf565b60405180910390a25050565b6113c661169f565b600073ffffffffffffffffffffffffffffffffffffffff168173ffffffffffffffffffffffffffffffffffffffff1603611435576040517f08c379a000000000000000000000000000000000000000000000000000000000815260040161142c9061307a565b60405180910390fd5b61143e8161175a565b50565b60086020528060005260406000206000915090505481565b60007f01ffc9a7000000000000000000000000000000000000000000000000000000007bffffffffffffffffffffffffffffffffffffffffffffffffffffffff1916827bffffffffffffffffffffffffffffffffffffffffffffffffffffffff1916149050919050565b6114cc81611b35565b61150b576040517f08c379a000000000000000000000000000000000000000000000000000000000815260040161150290612d47565b60405180910390fd5b50565b600033905090565b816004600083815260200190815260200160002060006101000a81548173ffffffffffffffffffffffffffffffffffffffff021916908373ffffffffffffffffffffffffffffffffffffffff160217905550808273ffffffffffffffffffffffffffffffffffffffff166115898361091a565b73ffffffffffffffffffffffffffffffffffffffff167f8c5be1e5ebec7d5bd14f71427d1e84f3dd0314c0f7b2291e5b200ac8c7c3b92560405160405180910390a45050565b6000806115db8361091a565b90508073ffffffffffffffffffffffffffffffffffffffff168473ffffffffffffffffffffffffffffffffffffffff16148061161d575061161c81856111b7565b5b8061165b57508373ffffffffffffffffffffffffffffffffffffffff16611643846106b2565b73ffffffffffffffffffffffffffffffffffffffff16145b91505092915050565b6040517f08c379a00000000000000000000000000000000000000000000000000000000081526004016116969061310c565b60405180910390fd5b6116a761150e565b73ffffffffffffffffffffffffffffffffffffffff166116c5610b75565b73ffffffffffffffffffffffffffffffffffffffff161461171b576040517f08c379a000000000000000000000000000000000000000000000000000000000815260040161171290613178565b60405180910390fd5b565b60006002600083815260200190815260200160002060009054906101000a900473ffffffffffffffffffffffffffffffffffffffff169050919050565b6000600660009054906101000a900473ffffffffffffffffffffffffffffffffffffffff16905081600660006101000a81548173ffffffffffffffffffffffffffffffffffffffff021916908373ffffffffffffffffffffffffffffffffffffffff1602179055508173ffffffffffffffffffffffffffffffffffffffff168173ffffffffffffffffffffffffffffffffffffffff167f8be0079c531659141344cd1fd0a4f28419497f9722a3daafe3b4186f6b6457e060405160405180910390a35050565b80600860008473ffffffffffffffffffffffffffffffffffffffff1673ffffffffffffffffffffffffffffffffffffffff168152602001908152602001600020600082825461186f9190613198565b925050819055508173ffffffffffffffffffffffffffffffffffffffff167f1184f90af155d0111e012d312573e4629b957416262135b177d8f05a626b723382600860008673ffffffffffffffffffffffffffffffffffffffff1673ffffffffffffffffffffffffffffffffffffffff168152602001908152602001600020546040516118fd929190612fdf565b60405180910390a25050565b600061191482610b9f565b5090506000600960008473ffffffffffffffffffffffffffffffffffffffff1673ffffffffffffffffffffffffffffffffffffffff1681526020019081526020016000205403611969576119688282611b76565b5b5050565b8173ffffffffffffffffffffffffffffffffffffffff168373ffffffffffffffffffffffffffffffffffffffff16036119db576040517f08c379a00000000000000000000000000000000000000000000000000000000081526004016119d290613218565b60405180910390fd5b80600560008573ffffffffffffffffffffffffffffffffffffffff1673ffffffffffffffffffffffffffffffffffffffff16815260200190815260200160002060008473ffffffffffffffffffffffffffffffffffffffff1673ffffffffffffffffffffffffffffffffffffffff16815260200190815260200160002060006101000a81548160ff0219169083151502179055508173ffffffffffffffffffffffffffffffffffffffff168373ffffffffffffffffffffffffffffffffffffffff167f17307eab39ab6107e8899845ad3d59bd9653f200f220920489ca2b5937696c3183604051611acc91906120bf565b60405180910390a3505050565b611ae4848484611664565b611af084848484611c38565b611b2f576040517f08c379a0000000000000000000000000000000000000000000000000000000008152600401611b26906132aa565b60405180910390fd5b50505050565b60008073ffffffffffffffffffffffffffffffffffffffff16611b578361171d565b73ffffffffffffffffffffffffffffffffffffffff1614159050919050565b60076000815480929190611b89906132ca565b919050555060006007549050611b9f8382611dbf565b80600960008573ffffffffffffffffffffffffffffffffffffffff1673ffffffffffffffffffffffffffffffffffffffff168152602001908152602001600020819055508273ffffffffffffffffffffffffffffffffffffffff167faa65ebe4613147dd82485f5bc2f7908a1b5c372d5a3890cccebaace1c7f9df708284604051611c2b929190612fdf565b60405180910390a2505050565b6000611c598473ffffffffffffffffffffffffffffffffffffffff16611fdc565b15611db2578373ffffffffffffffffffffffffffffffffffffffff1663150b7a02611c8261150e565b8786866040518563ffffffff1660e01b8152600401611ca49493929190613367565b6020604051808303816000875af1925050508015611ce057506040513d601f19601f82011682018060405250810190611cdd91906133c8565b60015b611d62573d8060008114611d10576040519150601f19603f3d011682016040523d82523d6000602084013e611d15565b606091505b506000815103611d5a576040517f08c379a0000000000000000000000000000000000000000000000000000000008152600401611d51906132aa565b60405180910390fd5b805181602001fd5b63150b7a0260e01b7bffffffffffffffffffffffffffffffffffffffffffffffffffffffff1916817bffffffffffffffffffffffffffffffffffffffffffffffffffffffff191614915050611db7565b600190505b949350505050565b600073ffffffffffffffffffffffffffffffffffffffff168273ffffffffffffffffffffffffffffffffffffffff1603611e2e576040517f08c379a0000000000000000000000000000000000000000000000000000000008152600401611e2590613441565b60405180910390fd5b611e3781611b35565b15611e77576040517f08c379a0000000000000000000000000000000000000000000000000000000008152600401611e6e906134ad565b60405180910390fd5b611e85600083836001611fff565b611e8e81611b35565b15611ece576040517f08c379a0000000000000000000000000000000000000000000000000000000008152600401611ec5906134ad565b60405180910390fd5b6001600360008473ffffffffffffffffffffffffffffffffffffffff1673ffffffffffffffffffffffffffffffffffffffff16815260200190815260200160002060008282540192505081905550816002600083815260200190815260200160002060006101000a81548173ffffffffffffffffffffffffffffffffffffffff021916908373ffffffffffffffffffffffffffffffffffffffff160217905550808273ffffffffffffffffffffffffffffffffffffffff16600073ffffffffffffffffffffffffffffffffffffffff167fddf252ad1be2c89b69c2b068fc378daa952ba7f163c4a11628f55a4df523b3ef60405160405180910390a4611fd8600083836001612005565b5050565b6000808273ffffffffffffffffffffffffffffffffffffffff163b119050919050565b50505050565b50505050565b6000604051905090565b600080fd5b600080fd5b60007fffffffff0000000000000000000000000000000000000000000000000000000082169050919050565b6120548161201f565b811461205f57600080fd5b50565b6000813590506120718161204b565b92915050565b60006020828403121561208d5761208c612015565b5b600061209b84828501612062565b91505092915050565b60008115159050919050565b6120b9816120a4565b82525050565b60006020820190506120d460008301846120b0565b92915050565b600081519050919050565b600082825260208201905092915050565b60005b838110156121145780820151818401526020810190506120f9565b60008484015250505050565b6000601f19601f8301169050919050565b600061213c826120da565b61214681856120e5565b93506121568185602086016120f6565b61215f81612120565b840191505092915050565b600060208201905081810360008301526121848184612131565b905092915050565b6000819050919050565b61219f8161218c565b81146121aa57600080fd5b50565b6000813590506121bc81612196565b92915050565b6000602082840312156121d8576121d7612015565b5b60006121e6848285016121ad565b91505092915050565b600073ffffffffffffffffffffffffffffffffffffffff82169050919050565b600061221a826121ef565b9050919050565b61222a8161220f565b82525050565b60006020820190506122456000830184612221565b92915050565b6122548161220f565b811461225f57600080fd5b50565b6000813590506122718161224b565b92915050565b6000806040838503121561228e5761228d612015565b5b600061229c85828601612262565b92505060206122ad858286016121ad565b9150509250929050565b6000806000606084860312156122d0576122cf612015565b5b60006122de86828701612262565b93505060206122ef86828701612262565b9250506040612300868287016121ad565b9150509250925092565b600080fd5b600080fd5b7f4e487b7100000000000000000000000000000000000000000000000000000000600052604160045260246000fd5b61234c82612120565b810181811067ffffffffffffffff8211171561236b5761236a612314565b5b80604052505050565b600061237e61200b565b905061238a8282612343565b919050565b600067ffffffffffffffff8211156123aa576123a9612314565b5b6123b382612120565b9050602081019050919050565b82818337600083830152505050565b60006123e26123dd8461238f565b612374565b9050828152602081018484840111156123fe576123fd61230f565b5b6124098482856123c0565b509392505050565b600082601f8301126124265761242561230a565b5b81356124368482602086016123cf565b91505092915050565b60008060006060848603121561245857612457612015565b5b600084013567ffffffffffffffff8111156124765761247561201a565b5b61248286828701612411565b9350506020612493868287016121ad565b925050604084013567ffffffffffffffff8111156124b4576124b361201a565b5b6124c086828701612411565b9150509250925092565b6000602082840312156124e0576124df612015565b5b60006124ee84828501612262565b91505092915050565b6125008161218c565b82525050565b600060208201905061251b60008301846124f7565b92915050565b6000806040838503121561253857612537612015565b5b600061254685828601612262565b925050602083013567ffffffffffffffff8111156125675761256661201a565b5b61257385828601612411565b9150509250929050565b600060408201905061259260008301856124f7565b81810360208301526125a48184612131565b90509392505050565b600060608201905081810360008301526125c78186612131565b90506125d660208301856124f7565b81810360408301526125e88184612131565b9050949350505050565b6125fb816120a4565b811461260657600080fd5b50565b600081359050612618816125f2565b92915050565b6000806040838503121561263557612634612015565b5b600061264385828601612262565b925050602061265485828601612609565b9150509250929050565b600067ffffffffffffffff82111561267957612678612314565b5b61268282612120565b9050602081019050919050565b60006126a261269d8461265e565b612374565b9050828152602081018484840111156126be576126bd61230f565b5b6126c98482856123c0565b509392505050565b600082601f8301126126e6576126e561230a565b5b81356126f684826020860161268f565b91505092915050565b6000806000806080858703121561271957612718612015565b5b600061272787828801612262565b945050602061273887828801612262565b9350506040612749878288016121ad565b925050606085013567ffffffffffffffff81111561276a5761276961201a565b5b612776878288016126d1565b91505092959194509250565b6000806040838503121561279957612798612015565b5b600083013567ffffffffffffffff8111156127b7576127b661201a565b5b6127c385828601612411565b92505060206127d4858286016121ad565b9150509250929050565b6000602082840312156127f4576127f3612015565b5b600082013567ffffffffffffffff8111156128125761281161201a565b5b61281e84828501612411565b91505092915050565b6000806040838503121561283e5761283d612015565b5b600061284c85828601612262565b925050602061285d85828601612262565b9150509250929050565b7f4e487b7100000000000000000000000000000000000000000000000000000000600052602260045260246000fd5b600060028204905060018216806128ae57607f821691505b6020821081036128c1576128c0612867565b5b50919050565b7f4552433732313a20617070726f76616c20746f2063757272656e74206f776e6560008201527f7200000000000000000000000000000000000000000000000000000000000000602082015250565b60006129236021836120e5565b915061292e826128c7565b604082019050919050565b6000602082019050818103600083015261295281612916565b9050919050565b7f4552433732313a20617070726f76652063616c6c6572206973206e6f7420746f60008201527f6b656e206f776e6572206f7220617070726f76656420666f7220616c6c000000602082015250565b60006129b5603d836120e5565b91506129c082612959565b604082019050919050565b600060208201905081810360008301526129e4816129a8565b9050919050565b7f4552433732313a2063616c6c6572206973206e6f7420746f6b656e206f776e6560008201527f72206f7220617070726f76656400000000000000000000000000000000000000602082015250565b6000612a47602d836120e5565b9150612a52826129eb565b604082019050919050565b60006020820190508181036000830152612a7681612a3a565b9050919050565b60008190508160005260206000209050919050565b60006020601f8301049050919050565b600082821b905092915050565b600060088302612adf7fffffffffffffffffffffffffffffffffffffffffffffffffffffffffffffffff82612aa2565b612ae98683612aa2565b95508019841693508086168417925050509392505050565b6000819050919050565b6000612b26612b21612b1c8461218c565b612b01565b61218c565b9050919050565b6000819050919050565b612b4083612b0b565b612b54612b4c82612b2d565b848454612aaf565b825550505050565b600090565b612b69612b5c565b612b74818484612b37565b505050565b5b81811015612b9857612b8d600082612b61565b600181019050612b7a565b5050565b601f821115612bdd57612bae81612a7d565b612bb784612a92565b81016020851015612bc6578190505b612bda612bd285612a92565b830182612b79565b50505b505050565b600082821c905092915050565b6000612c0060001984600802612be2565b1980831691505092915050565b6000612c198383612bef565b9150826002028217905092915050565b612c32826120da565b67ffffffffffffffff811115612c4b57612c4a612314565b5b612c558254612896565b612c60828285612b9c565b600060209050601f831160018114612c935760008415612c81578287015190505b612c8b8582612c0d565b865550612cf3565b601f198416612ca186612a7d565b60005b82811015612cc957848901518255600182019150602085019450602081019050612ca4565b86831015612ce65784890151612ce2601f891682612bef565b8355505b6001600288020188555050505b505050505050565b7f4552433732313a20696e76616c696420746f6b656e2049440000000000000000600082015250565b6000612d316018836120e5565b9150612d3c82612cfb565b602082019050919050565b60006020820190508181036000830152612d6081612d24565b9050919050565b7f4552433732313a2061646472657373207a65726f206973206e6f74206120766160008201527f6c6964206f776e65720000000000000000000000000000000000000000000000602082015250565b6000612dc36029836120e5565b9150612dce82612d67565b604082019050919050565b60006020820190508181036000830152612df281612db6565b9050919050565b600081905092915050565b6000612e0f826120da565b612e198185612df9565b9350612e298185602086016120f6565b80840191505092915050565b6000612e418284612e04565b915081905092915050565b7f416374696f6e2074797065206e6f74207265636f676e697a6564000000000000600082015250565b6000612e82601a836120e5565b9150612e8d82612e4c565b602082019050919050565b60006020820190508181036000830152612eb181612e75565b9050919050565b7f4e487b7100000000000000000000000000000000000000000000000000000000600052601160045260246000fd5b6000612ef28261218c565b9150612efd8361218c565b9250828203905081811115612f1557612f14612eb8565b5b92915050565b7f4e487b7100000000000000000000000000000000000000000000000000000000600052603260045260246000fd5b6000612f558261218c565b915060008203612f6857612f67612eb8565b5b600182039050919050565b7f52657075746174696f6e2063616e6e6f7420676f2062656c6f77207a65726f00600082015250565b6000612fa9601f836120e5565b9150612fb482612f73565b602082019050919050565b60006020820190508181036000830152612fd881612f9c565b9050919050565b6000604082019050612ff460008301856124f7565b61300160208301846124f7565b9392505050565b7f4f776e61626c653a206e6577206f776e657220697320746865207a65726f206160008201527f6464726573730000000000000000000000000000000000000000000000000000602082015250565b60006130646026836120e5565b915061306f82613008565b604082019050919050565b6000602082019050818103600083015261309381613057565b9050919050565b7f536f756c626f756e6420746f6b656e732063616e6e6f74206265207472616e7360008201527f6665727265640000000000000000000000000000000000000000000000000000602082015250565b60006130f66026836120e5565b91506131018261309a565b604082019050919050565b60006020820190508181036000830152613125816130e9565b9050919050565b7f4f776e61626c653a2063616c6c6572206973206e6f7420746865206f776e6572600082015250565b60006131626020836120e5565b915061316d8261312c565b602082019050919050565b6000602082019050818103600083015261319181613155565b9050919050565b60006131a38261218c565b91506131ae8361218c565b92508282019050808211156131c6576131c5612eb8565b5b92915050565b7f4552433732313a20617070726f766520746f2063616c6c657200000000000000600082015250565b60006132026019836120e5565b915061320d826131cc565b602082019050919050565b60006020820190508181036000830152613231816131f5565b9050919050565b7f4552433732313a207472616e7366657220746f206e6f6e20455243373231526560008201527f63656976657220696d706c656d656e7465720000000000000000000000000000602082015250565b60006132946032836120e5565b915061329f82613238565b604082019050919050565b600060208201905081810360008301526132c381613287565b9050919050565b60006132d58261218c565b91507fffffffffffffffffffffffffffffffffffffffffffffffffffffffffffffffff820361330757613306612eb8565b5b600182019050919050565b600081519050919050565b600082825260208201905092915050565b600061333982613312565b613343818561331d565b93506133538185602086016120f6565b61335c81612120565b840191505092915050565b600060808201905061337c6000830187612221565b6133896020830186612221565b61339660408301856124f7565b81810360608301526133a8818461332e565b905095945050505050565b6000815190506133c28161204b565b92915050565b6000602082840312156133de576133dd612015565b5b60006133ec848285016133b3565b91505092915050565b7f4552433732313a206d696e7420746f20746865207a65726f2061646472657373600082015250565b600061342b6020836120e5565b9150613436826133f5565b602082019050919050565b6000602082019050818103600083015261345a8161341e565b9050919050565b7f4552433732313a20746f6b656e20616c7265616479206d696e74656400000000600082015250565b6000613497601c836120e5565b91506134a282613461565b602082019050919050565b600060208201905081810360008301526134c68161348a565b905091905056fea264697066735822122066fb68196d8d0b369ffc1384453ab2bb7afd1f0544ac2081ef44452489d527af64736f6c63430008140033",
  "linkReferences": {},
  "deployedLinkReferences": {}
}